{
  "_format": "hh-sol-artifact-1",
  "contractName": "GitHubFundManager",
  "sourceName": "contracts/GitHubFundManager.sol",
  "abi": [
    {
      "inputs": [
        {
          "internalType": "address",
          "name": "_chainLinkRouter",
          "type": "address"
        },
        {
          "internalType": "bytes32",
          "name": "_chainLinkDonId",
          "type": "bytes32"
        },
        {
          "internalType": "uint64",
          "name": "_chainLinkSubscriptionId",
          "type": "uint64"
        },
        {
          "internalType": "uint8",
          "name": "_chainLinkJwtSecretSlotId",
          "type": "uint8"
        },
        {
          "internalType": "uint64",
          "name": "_chainLinkJwtSecretVersion",
          "type": "uint64"
        },
        {
          "internalType": "address",
          "name": "_risc0Verifier",
          "type": "address"
        },
        {
          "internalType": "bytes32",
          "name": "_risc0ImageId",
          "type": "bytes32"
        }
      ],
      "stateMutability": "nonpayable",
      "type": "constructor"
    },
    {
      "inputs": [],
      "name": "EmptyArgs",
      "type": "error"
    },
    {
      "inputs": [],
      "name": "EmptySource",
      "type": "error"
    },
    {
      "inputs": [],
      "name": "NoInlineSecrets",
      "type": "error"
    },
    {
      "inputs": [],
      "name": "OnlyRouterCanFulfill",
      "type": "error"
    },
    {
      "anonymous": false,
      "inputs": [
        {
          "indexed": false,
          "internalType": "bytes32",
          "name": "requestId",
          "type": "bytes32"
        },
        {
          "indexed": false,
          "internalType": "bytes",
          "name": "response",
          "type": "bytes"
        },
        {
          "indexed": false,
          "internalType": "bytes",
          "name": "error",
          "type": "bytes"
        }
      ],
      "name": "ChainLinkFunctionFullfilled",
      "type": "event"
    },
    {
      "anonymous": false,
      "inputs": [
        {
          "indexed": false,
          "internalType": "bytes32",
          "name": "requestId",
          "type": "bytes32"
        },
        {
          "indexed": false,
          "internalType": "uint64",
          "name": "subscriptionId",
          "type": "uint64"
        },
        {
          "indexed": false,
          "internalType": "uint32",
          "name": "gasLimit",
          "type": "uint32"
        },
        {
          "indexed": false,
          "internalType": "string",
          "name": "organization",
          "type": "string"
        },
        {
          "indexed": false,
          "internalType": "string",
          "name": "repository",
          "type": "string"
        }
      ],
      "name": "ChainLinkFunctionRequested",
      "type": "event"
    },
    {
      "anonymous": false,
      "inputs": [
        {
          "indexed": true,
          "internalType": "address",
          "name": "user",
          "type": "address"
        },
        {
          "indexed": false,
          "internalType": "string",
          "name": "githubLogin",
          "type": "string"
        }
      ],
      "name": "GitHubAccountAssociated",
      "type": "event"
    },
    {
      "anonymous": false,
      "inputs": [
        {
          "indexed": true,
          "internalType": "address",
          "name": "from",
          "type": "address"
        },
        {
          "indexed": true,
          "internalType": "address",
          "name": "to",
          "type": "address"
        }
      ],
      "name": "OwnershipTransferRequested",
      "type": "event"
    },
    {
      "anonymous": false,
      "inputs": [
        {
          "indexed": true,
          "internalType": "address",
          "name": "from",
          "type": "address"
        },
        {
          "indexed": true,
          "internalType": "address",
          "name": "to",
          "type": "address"
        }
      ],
      "name": "OwnershipTransferred",
      "type": "event"
    },
    {
      "anonymous": false,
      "inputs": [
        {
          "indexed": true,
          "internalType": "uint256",
          "name": "repositoryIndex",
          "type": "uint256"
        },
        {
          "indexed": false,
          "internalType": "string",
          "name": "githubOrganization",
          "type": "string"
        },
        {
          "indexed": false,
          "internalType": "string",
          "name": "githubRepository",
          "type": "string"
        }
      ],
      "name": "RepositoryAdded",
      "type": "event"
    },
    {
      "anonymous": false,
      "inputs": [
        {
          "indexed": true,
          "internalType": "bytes32",
          "name": "id",
          "type": "bytes32"
        }
      ],
      "name": "RequestFulfilled",
      "type": "event"
    },
    {
      "anonymous": false,
      "inputs": [
        {
          "indexed": true,
          "internalType": "bytes32",
          "name": "id",
          "type": "bytes32"
        }
      ],
      "name": "RequestSent",
      "type": "event"
    },
    {
      "anonymous": false,
      "inputs": [
        {
          "indexed": true,
          "internalType": "uint256",
          "name": "repositoryIndex",
          "type": "uint256"
        },
        {
          "indexed": true,
          "internalType": "uint256",
          "name": "fundIndex",
          "type": "uint256"
        },
        {
          "indexed": false,
          "internalType": "address",
          "name": "tokenAddress",
          "type": "address"
        },
        {
          "indexed": false,
          "internalType": "string[]",
          "name": "githubLogins",
          "type": "string[]"
        },
        {
          "indexed": false,
          "internalType": "uint256[]",
          "name": "amounts",
          "type": "uint256[]"
        }
      ],
      "name": "TokenDistributed",
      "type": "event"
    },
    {
      "anonymous": false,
      "inputs": [
        {
          "indexed": true,
          "internalType": "uint256",
          "name": "repositoryIndex",
          "type": "uint256"
        },
        {
          "indexed": true,
          "internalType": "uint256",
          "name": "fundIndex",
          "type": "uint256"
        },
        {
          "indexed": false,
          "internalType": "address",
          "name": "tokenAddress",
          "type": "address"
        },
        {
          "indexed": false,
          "internalType": "uint256",
          "name": "amount",
          "type": "uint256"
        },
        {
          "indexed": false,
          "internalType": "address",
          "name": "funder",
          "type": "address"
        }
      ],
      "name": "TokenFundedToRepository",
      "type": "event"
    },
    {
      "anonymous": false,
      "inputs": [
        {
          "indexed": true,
          "internalType": "uint256",
          "name": "repositoryIndex",
          "type": "uint256"
        },
        {
          "indexed": false,
          "internalType": "string",
          "name": "githubLogin",
          "type": "string"
        },
        {
          "indexed": false,
          "internalType": "address",
          "name": "tokenAddress",
          "type": "address"
        },
        {
          "indexed": false,
          "internalType": "uint256",
          "name": "amount",
          "type": "uint256"
        },
        {
          "indexed": false,
          "internalType": "address",
          "name": "recipient",
          "type": "address"
        }
      ],
      "name": "TokenWithdrawn",
      "type": "event"
    },
    {
      "inputs": [],
      "name": "acceptOwnership",
      "outputs": [],
      "stateMutability": "nonpayable",
      "type": "function"
    },
    {
      "inputs": [
        {
          "internalType": "bytes32",
          "name": "",
          "type": "bytes32"
        }
      ],
      "name": "chainLinkFunctionRequestIdToFundIndex",
      "outputs": [
        {
          "internalType": "uint256",
          "name": "",
          "type": "uint256"
        }
      ],
      "stateMutability": "view",
      "type": "function"
    },
    {
      "inputs": [],
      "name": "defaultAllocator",
      "outputs": [
        {
          "internalType": "address",
          "name": "",
          "type": "address"
        }
      ],
      "stateMutability": "view",
      "type": "function"
    },
    {
      "inputs": [
        {
          "internalType": "bytes",
          "name": "seal",
          "type": "bytes"
        },
        {
          "internalType": "bytes32",
          "name": "postStateDigest",
          "type": "bytes32"
        },
        {
          "internalType": "bytes",
          "name": "journal",
          "type": "bytes"
        }
      ],
      "name": "distributeFund",
      "outputs": [],
      "stateMutability": "nonpayable",
      "type": "function"
    },
    {
      "inputs": [
        {
          "internalType": "bytes32",
          "name": "",
          "type": "bytes32"
        },
        {
          "internalType": "uint256",
          "name": "",
          "type": "uint256"
        },
        {
          "internalType": "address",
          "name": "",
          "type": "address"
        }
      ],
      "name": "distributedAmounts",
      "outputs": [
        {
          "internalType": "uint256",
          "name": "",
          "type": "uint256"
        }
      ],
      "stateMutability": "view",
      "type": "function"
    },
    {
      "inputs": [
        {
          "internalType": "string",
          "name": "organization",
          "type": "string"
        },
        {
          "internalType": "string",
          "name": "repository",
          "type": "string"
        },
        {
          "internalType": "address",
          "name": "tokenAddress",
          "type": "address"
        },
        {
          "internalType": "uint256",
          "name": "amount",
          "type": "uint256"
        }
      ],
      "name": "fundRepository",
      "outputs": [],
      "stateMutability": "payable",
      "type": "function"
    },
    {
      "inputs": [
        {
          "internalType": "uint256",
          "name": "",
          "type": "uint256"
        }
      ],
      "name": "funds",
      "outputs": [
        {
          "internalType": "uint256",
          "name": "index",
          "type": "uint256"
        },
        {
          "internalType": "uint256",
          "name": "repositoryIndex",
          "type": "uint256"
        },
        {
          "internalType": "address",
          "name": "funder",
          "type": "address"
        },
        {
          "internalType": "address",
          "name": "tokenAddress",
          "type": "address"
        },
        {
          "internalType": "uint256",
          "name": "amount",
          "type": "uint256"
        },
        {
          "internalType": "string",
          "name": "organization",
          "type": "string"
        },
        {
          "internalType": "string",
          "name": "repository",
          "type": "string"
        },
        {
          "internalType": "bytes32",
          "name": "chainLinkFunctionRequestId",
          "type": "bytes32"
        },
        {
          "internalType": "string",
          "name": "ipfsHash",
          "type": "string"
        },
        {
          "internalType": "bool",
          "name": "isIpfsHashStored",
          "type": "bool"
        },
        {
          "internalType": "bool",
          "name": "isDistributed",
          "type": "bool"
        }
      ],
      "stateMutability": "view",
      "type": "function"
    },
    {
      "inputs": [
        {
          "internalType": "uint256",
          "name": "fundIndex",
          "type": "uint256"
        }
      ],
      "name": "getFundIpfsHash",
      "outputs": [
        {
          "internalType": "string",
          "name": "",
          "type": "string"
        }
      ],
      "stateMutability": "view",
      "type": "function"
    },
    {
      "inputs": [
        {
          "internalType": "bytes32",
          "name": "",
          "type": "bytes32"
        }
      ],
      "name": "githubLoginHashToAddress",
      "outputs": [
        {
          "internalType": "address",
          "name": "",
          "type": "address"
        }
      ],
      "stateMutability": "view",
      "type": "function"
    },
    {
      "inputs": [
        {
          "internalType": "bytes32",
          "name": "requestId",
          "type": "bytes32"
        },
        {
          "internalType": "bytes",
          "name": "response",
          "type": "bytes"
        },
        {
          "internalType": "bytes",
          "name": "err",
          "type": "bytes"
        }
      ],
      "name": "handleOracleFulfillment",
      "outputs": [],
      "stateMutability": "nonpayable",
      "type": "function"
    },
    {
      "inputs": [],
      "name": "imageId",
      "outputs": [
        {
          "internalType": "bytes32",
          "name": "",
          "type": "bytes32"
        }
      ],
      "stateMutability": "view",
      "type": "function"
    },
    {
      "inputs": [
        {
          "internalType": "string",
          "name": "githubLogin",
          "type": "string"
        }
      ],
      "name": "isGitHubAccountRegistered",
      "outputs": [
        {
          "internalType": "bool",
          "name": "",
          "type": "bool"
        }
      ],
      "stateMutability": "view",
      "type": "function"
    },
    {
      "inputs": [],
      "name": "nextFundId",
      "outputs": [
        {
          "internalType": "uint256",
          "name": "",
          "type": "uint256"
        }
      ],
      "stateMutability": "view",
      "type": "function"
    },
    {
      "inputs": [],
      "name": "nextRepositoryIndex",
      "outputs": [
        {
          "internalType": "uint256",
          "name": "",
          "type": "uint256"
        }
      ],
      "stateMutability": "view",
      "type": "function"
    },
    {
      "inputs": [],
      "name": "owner",
      "outputs": [
        {
          "internalType": "address",
          "name": "",
          "type": "address"
        }
      ],
      "stateMutability": "view",
      "type": "function"
    },
    {
      "inputs": [
        {
          "internalType": "string",
          "name": "gitHubLogin",
          "type": "string"
        },
        {
          "components": [
            {
              "internalType": "bytes32",
              "name": "taskId",
              "type": "bytes32"
            },
            {
              "internalType": "bytes32",
              "name": "schemaId",
              "type": "bytes32"
            },
            {
              "internalType": "bytes32",
              "name": "uHash",
              "type": "bytes32"
            },
            {
              "internalType": "bytes32",
              "name": "publicFieldsHash",
              "type": "bytes32"
            },
            {
              "internalType": "address",
              "name": "validator",
              "type": "address"
            },
            {
              "internalType": "bytes",
              "name": "allocatorSignature",
              "type": "bytes"
            },
            {
              "internalType": "bytes",
              "name": "validatorSignature",
              "type": "bytes"
            }
          ],
          "internalType": "struct ZKPassProof",
          "name": "proof",
          "type": "tuple"
        }
      ],
      "name": "registerGitHubPass",
      "outputs": [],
      "stateMutability": "nonpayable",
      "type": "function"
    },
    {
      "inputs": [
        {
          "internalType": "string",
          "name": "",
          "type": "string"
        },
        {
          "internalType": "string",
          "name": "",
          "type": "string"
        }
      ],
      "name": "repositoryIndicies",
      "outputs": [
        {
          "internalType": "uint256",
          "name": "",
          "type": "uint256"
        }
      ],
      "stateMutability": "view",
      "type": "function"
    },
    {
      "inputs": [
        {
          "internalType": "address",
          "name": "to",
          "type": "address"
        }
      ],
      "name": "transferOwnership",
      "outputs": [],
      "stateMutability": "nonpayable",
      "type": "function"
    },
    {
      "inputs": [
        {
          "internalType": "bytes32",
          "name": "_donId",
          "type": "bytes32"
        },
        {
          "internalType": "uint64",
          "name": "_subscriptionId",
          "type": "uint64"
        },
        {
          "internalType": "uint8",
          "name": "_jwtSecretSlotId",
          "type": "uint8"
        },
        {
          "internalType": "uint64",
          "name": "_jwtSecretVersion",
          "type": "uint64"
        }
      ],
      "name": "updateChainLinkFunctionParameters",
      "outputs": [],
      "stateMutability": "nonpayable",
      "type": "function"
    },
    {
      "inputs": [
        {
          "internalType": "address",
          "name": "_verifier",
          "type": "address"
        },
        {
          "internalType": "bytes32",
          "name": "_imageId",
          "type": "bytes32"
        }
      ],
      "name": "updateRisc0Parameters",
      "outputs": [],
      "stateMutability": "nonpayable",
      "type": "function"
    },
    {
      "inputs": [],
      "name": "verifier",
      "outputs": [
        {
          "internalType": "contract IRiscZeroVerifier",
          "name": "",
          "type": "address"
        }
      ],
      "stateMutability": "view",
      "type": "function"
    },
    {
      "inputs": [
        {
          "internalType": "bytes32",
          "name": "_taskId",
          "type": "bytes32"
        },
        {
          "internalType": "bytes32",
          "name": "_schemaId",
          "type": "bytes32"
        },
        {
          "internalType": "address",
          "name": "_validator",
          "type": "address"
        },
        {
          "internalType": "bytes",
          "name": "_allocatorSignature",
          "type": "bytes"
        }
      ],
      "name": "verifyAllocatorSignature",
      "outputs": [
        {
          "internalType": "bool",
          "name": "",
          "type": "bool"
        }
      ],
      "stateMutability": "view",
      "type": "function"
    },
    {
      "inputs": [
        {
          "internalType": "bytes",
          "name": "seal",
          "type": "bytes"
        },
        {
          "internalType": "bytes32",
          "name": "journalDigest",
          "type": "bytes32"
        }
      ],
      "name": "verifyRisc0Proof",
      "outputs": [],
      "stateMutability": "view",
      "type": "function"
    },
    {
      "inputs": [
        {
          "internalType": "bytes32",
          "name": "_taskId",
          "type": "bytes32"
        },
        {
          "internalType": "bytes32",
          "name": "_schemaId",
          "type": "bytes32"
        },
        {
          "internalType": "bytes32",
          "name": "_uHash",
          "type": "bytes32"
        },
        {
          "internalType": "bytes32",
          "name": "_publicFieldsHash",
          "type": "bytes32"
        },
        {
          "internalType": "address",
          "name": "_validator",
          "type": "address"
        },
        {
          "internalType": "bytes",
          "name": "_validatorSignature",
          "type": "bytes"
        }
      ],
      "name": "verifyValidatorSignature",
      "outputs": [
        {
          "internalType": "bool",
          "name": "",
          "type": "bool"
        }
      ],
      "stateMutability": "pure",
      "type": "function"
    },
    {
      "inputs": [
        {
          "components": [
            {
              "internalType": "bytes32",
              "name": "taskId",
              "type": "bytes32"
            },
            {
              "internalType": "bytes32",
              "name": "schemaId",
              "type": "bytes32"
            },
            {
              "internalType": "bytes32",
              "name": "uHash",
              "type": "bytes32"
            },
            {
              "internalType": "bytes32",
              "name": "publicFieldsHash",
              "type": "bytes32"
            },
            {
              "internalType": "address",
              "name": "validator",
              "type": "address"
            },
            {
              "internalType": "bytes",
              "name": "allocatorSignature",
              "type": "bytes"
            },
            {
              "internalType": "bytes",
              "name": "validatorSignature",
              "type": "bytes"
            }
          ],
          "internalType": "struct ZKPassProof",
          "name": "_proof",
          "type": "tuple"
        }
      ],
      "name": "verifyZKPass",
      "outputs": [
        {
          "internalType": "bool",
          "name": "",
          "type": "bool"
        }
      ],
      "stateMutability": "view",
      "type": "function"
    },
    {
      "inputs": [
        {
          "internalType": "uint256",
          "name": "repositoryIndex",
          "type": "uint256"
        },
        {
          "internalType": "string",
          "name": "githubLogin",
          "type": "string"
        },
        {
          "internalType": "address",
          "name": "tokenAddress",
          "type": "address"
        },
        {
          "internalType": "uint256",
          "name": "amount",
          "type": "uint256"
        },
        {
          "internalType": "address",
          "name": "recipient",
          "type": "address"
        }
      ],
      "name": "withdrawFund",
      "outputs": [],
      "stateMutability": "nonpayable",
      "type": "function"
    }
  ],
  "bytecode": "0x60a0604052600080546001600160a01b0319167319a567b3b212a5b35ba0e3b600fbed5c2ee9083d1790556002805461249f60a51b63ffffffff60a01b1990911617905560016008819055600a553480156200005a57600080fd5b506040516200400f3803806200400f8339810160408190526200007d916200028c565b6001600160a01b038716608052818188888888883380600081620000e85760405162461bcd60e51b815260206004820152601860248201527f43616e6e6f7420736574206f776e657220746f207a65726f000000000000000060448201526064015b60405180910390fd5b600180546001600160a01b0319166001600160a01b03848116919091179091558116156200011b576200011b81620001ab565b505050600393909355600480546001600160401b03948516690100000000000000000002600160481b600160881b031960ff90941668010000000000000000026001600160481b03199092169590941694909417939093171617905550600580546001600160a01b039093166001600160a01b031990931692909217909155600655506200031695505050505050565b336001600160a01b03821603620002055760405162461bcd60e51b815260206004820152601760248201527f43616e6e6f74207472616e7366657220746f2073656c660000000000000000006044820152606401620000df565b600280546001600160a01b0319166001600160a01b03838116918217909255600154604051919216907fed8889f560326eb138920d842192f0eb3dd22b4f139c87a2c57538e05bae127890600090a350565b80516001600160a01b03811681146200026f57600080fd5b919050565b80516001600160401b03811681146200026f57600080fd5b600080600080600080600060e0888a031215620002a857600080fd5b620002b38862000257565b965060208801519550620002ca6040890162000274565b9450606088015160ff81168114620002e157600080fd5b9350620002f16080890162000274565b92506200030160a0890162000257565b915060c0880151905092959891949750929550565b608051613cd6620003396000396000818161059001526124a30152613cd66000f3fe6080604052600436106101a15760003560e01c80636c1e60c7116100e1578063960dfaf81161008a578063d1c9587a11610064578063d1c9587a146104f9578063dc3eebd51461052f578063ef3f7dd51461054f578063f2fde38b1461056557600080fd5b8063960dfaf814610485578063c79e6f9f146104a5578063ceee092c146104e357600080fd5b80637b8e8895116100bb5780637b8e88951461041057806385257fd3146104475780638da5cb5b1461046757600080fd5b80636c1e60c7146103ae57806372d14cd0146103db57806379ba5097146103fb57600080fd5b80632b7ac3f31161014e57806356c407aa1161012857806356c407aa1461031057806357cb9d181461032657806361b5457f1461037b57806367972f911461039b57600080fd5b80632b7ac3f3146102b05780634e3fae69146102d0578063528727be146102f057600080fd5b80631de10a301161017f5780631de10a30146102255780631f97770c1461026057806326228f511461029057600080fd5b806308fb8396146101a65780630ca76175146101e35780631c2f1e6414610205575b600080fd5b3480156101b257600080fd5b506000546101c6906001600160a01b031681565b6040516001600160a01b0390911681526020015b60405180910390f35b3480156101ef57600080fd5b506102036101fe366004612b6e565b610585565b005b34801561021157600080fd5b50610203610220366004612c24565b610622565b34801561023157600080fd5b50610252610240366004612c9e565b600c6020526000908152604090205481565b6040519081526020016101da565b34801561026c57600080fd5b5061028061027b366004612cd3565b6109e2565b60405190151581526020016101da565b34801561029c57600080fd5b506102806102ab366004612d2a565b610ac6565b3480156102bc57600080fd5b506005546101c6906001600160a01b031681565b3480156102dc57600080fd5b506102806102eb366004612d67565b610b57565b3480156102fc57600080fd5b5061020361030b366004612dfa565b610c00565b34801561031c57600080fd5b5061025260085481565b34801561033257600080fd5b50610252610341366004612e4f565b8151602081840181018051600982529282019482019490942091909352815180830184018051928152908401929093019190912091525481565b34801561038757600080fd5b50610203610396366004612ecb565b610c7d565b6102036103a9366004612f25565b610e7e565b3480156103ba57600080fd5b506103ce6103c9366004612c9e565b611131565b6040516101da9190612ff1565b3480156103e757600080fd5b506102806103f6366004613004565b6111d6565b34801561040757600080fd5b5061020361123d565b34801561041c57600080fd5b5061043061042b366004612c9e565b6112f2565b6040516101da9b9a99989796959493929190613039565b34801561045357600080fd5b506102036104623660046130c9565b6114f3565b34801561047357600080fd5b506001546001600160a01b03166101c6565b34801561049157600080fd5b506102036104a0366004613115565b611578565b3480156104b157600080fd5b506102526104c036600461313f565b600d60209081526000938452604080852082529284528284209052825290205481565b3480156104ef57600080fd5b50610252600a5481565b34801561050557600080fd5b506101c6610514366004612c9e565b6007602052600090815260409020546001600160a01b031681565b34801561053b57600080fd5b5061020361054a366004613174565b6115a8565b34801561055b57600080fd5b5061025260065481565b34801561057157600080fd5b506102036105803660046131e6565b61184c565b336001600160a01b037f000000000000000000000000000000000000000000000000000000000000000016146105e7576040517fc6829f8300000000000000000000000000000000000000000000000000000000815260040160405180910390fd5b6105f2838383611860565b60405183907f85e1543bf2f84fe80c6badbce3648c8539ad1df4d2b3d822938ca0538be727e690600090a2505050565b6000808061063284860186613294565b925092509250805182511461068e5760405162461bcd60e51b815260206004820152600f60248201527f6c656e677468206d69736d61746368000000000000000000000000000000000060448201526064015b60405180910390fd5b6000838152600b6020526040812080549091036106ed5760405162461bcd60e51b815260206004820152600e60248201527f46756e64206e6f7420666f756e640000000000000000000000000000000000006044820152606401610685565b6009810154610100900460ff16156107475760405162461bcd60e51b815260206004820152601860248201527f46756e6420616c726561647920646973747269627574656400000000000000006044820152606401610685565b600981015460ff1661079b5760405162461bcd60e51b815260206004820152601260248201527f49504653206861736820697320656d70747900000000000000000000000000006044820152606401610685565b6107f28989600289896040516107b2929190613369565b602060405180830381855afa1580156107cf573d6000803e3d6000fd5b5050506040513d601f19601f820116820180604052508101906104629190613379565b6000805b845181101561091f576000600286838151811061081557610815613392565b602002602001015160405160200161082d91906133a8565b60408051601f1981840301815290829052610847916133a8565b602060405180830381855afa158015610864573d6000803e3d6000fd5b5050506040513d601f19601f820116820180604052508101906108879190613379565b905084828151811061089b5761089b613392565b6020908102919091018101516000838152600d8352604080822060018901548352845280822060038901546001600160a01b031683529093529182208054919290916108e89084906133da565b9250508190555084828151811061090157610901613392565b60200260200101518361091491906133da565b9250506001016107f6565b50816004015481146109735760405162461bcd60e51b815260206004820152601560248201527f746f74616c20616d6f756e74206d69736d6174636800000000000000000000006044820152606401610685565b60098201805461ff0019166101001790558154600183015460038401546040517fa71309386f4200f28ab44363a2860468f1237af7b6a755090f663258e2b3e5f1916109ce916001600160a01b0390911690899089906133ed565b60405180910390a350505050505050505050565b6040805160208082018890528183018790526001600160a01b038616606080840191909152835180840390910181526080830184528051908201207f19457468657265756d205369676e6564204d6573736167653a0a33320000000060a084015260bc8084018290528451808503909101815260dc9093019093528151910120600091908290610aa9905b86868080601f0160208091040260200160405190810160405280939291908181526020018383808284376000920191909152506118ab92505050565b6000546001600160a01b0390811691161498975050505050505050565b600080600283604051602001610adc91906133a8565b60408051601f1981840301815290829052610af6916133a8565b602060405180830381855afa158015610b13573d6000803e3d6000fd5b5050506040513d601f19601f82011682018060405250810190610b369190613379565b6000908152600760205260409020546001600160a01b031615159392505050565b6040805160208082018a90528183018990526060820188905260808083018890528351808403909101815260a0830184528051908201207f19457468657265756d205369676e6564204d6573736167653a0a33320000000060c084015260dc8084018290528451808503909101815260fc9093019093528151910120600091908290610be290610a6d565b6001600160a01b039081169087161492505050979650505050505050565b610c08611b16565b60038490556004805467ffffffffffffffff80861668ffffffffffffffffff19909216919091176801000000000000000060ff861602177fffffffffffffffffffffffffffffff0000000000000000ffffffffffffffffff166901000000000000000000918416919091021790555b50505050565b610c86816111d6565b610cd25760405162461bcd60e51b815260206004820152601a60248201527f5a4b5061737320766572696669636174696f6e206661696c65640000000000006044820152606401610685565b6000600283604051602001610ce791906133a8565b60408051601f1981840301815290829052610d01916133a8565b602060405180830381855afa158015610d1e573d6000803e3d6000fd5b5050506040513d601f19601f82011682018060405250810190610d419190613379565b905081604001358114610d965760405162461bcd60e51b815260206004820152601a60248201527f476974487562206c6f67696e2068617368206d69736d617463680000000000006044820152606401610685565b6000818152600760205260409020546001600160a01b0316610e1f5760405162461bcd60e51b8152602060048201526024808201527f476974487562206163636f756e7420697320616c72656164792072656769737460448201527f65726564000000000000000000000000000000000000000000000000000000006064820152608401610685565b6000818152600760205260409081902080546001600160a01b0319163390811790915590517f42d2addcc7b1d573c9afff840131b4c96990a7669237e362ca7825115303664390610e71908690612ff1565b60405180910390a2505050565b610e89338383611b72565b6000600985604051610e9b91906133a8565b908152602001604051809103902084604051610eb791906133a8565b908152602001604051809103902054905080600003610f66575060088054906001906000610ee583856133da565b9250508190555080600986604051610efd91906133a8565b908152602001604051809103902085604051610f1991906133a8565b908152602001604051809103902081905550807fcac3edd9678e198c2066ceee5618f73a566553cd537478222571697ff93315048686604051610f5d929190613497565b60405180910390a25b6000610f728686611d2a565b600a80549192506001906000610f8883856133da565b909155505060408051610160810182528281526020808201868152338385019081526001600160a01b038a811660608601908152608086018b815260a087018f815260c088018f905260e088018b905288518088018a5260008082526101008a0191909152610120890181905261014089018190528a8152600b90975297909520865181559351600185015591516002840180546001600160a01b031990811692841692909217905591516003840180549093169116179055905160048201559151909190600582019061105c9082613549565b5060c082015160068201906110719082613549565b5060e0820151600782015561010082015160088201906110919082613549565b5061012082015160099190910180546101409093015115156101000261ff00199215159290921661ffff19909316929092171790556000828152600c602090815260409182902083905581516001600160a01b03881681529081018690523391810191909152819084907f1c60c1419804fc01f39f3a54cef71578a0faca01b7455221ba9d33aa2ab74dca9060600160405180910390a350505050505050565b6000818152600b60205260409020600801805460609190611151906134c5565b80601f016020809104026020016040519081016040528092919081815260200182805461117d906134c5565b80156111ca5780601f1061119f576101008083540402835291602001916111ca565b820191906000526020600020905b8154815290600101906020018083116111ad57829003601f168201915b50505050509050919050565b600061120982356020840135604085013560608601356111fc60a08801608089016131e6565b6102eb60c0890189613609565b801561123757506112378235602084013561122a60a08601608087016131e6565b61027b60a0870187613609565b92915050565b6002546001600160a01b031633146112975760405162461bcd60e51b815260206004820152601660248201527f4d7573742062652070726f706f736564206f776e6572000000000000000000006044820152606401610685565b600180546001600160a01b0319808216339081179093556002805490911690556040516001600160a01b03909116919082907f8be0079c531659141344cd1fd0a4f28419497f9722a3daafe3b4186f6b6457e090600090a350565b600b60205260009081526040902080546001820154600283015460038401546004850154600586018054959694956001600160a01b03948516959490931693919261133c906134c5565b80601f0160208091040260200160405190810160405280929190818152602001828054611368906134c5565b80156113b55780601f1061138a576101008083540402835291602001916113b5565b820191906000526020600020905b81548152906001019060200180831161139857829003601f168201915b5050505050908060060180546113ca906134c5565b80601f01602080910402602001604051908101604052809291908181526020018280546113f6906134c5565b80156114435780601f1061141857610100808354040283529160200191611443565b820191906000526020600020905b81548152906001019060200180831161142657829003601f168201915b50505050509080600701549080600801805461145e906134c5565b80601f016020809104026020016040519081016040528092919081815260200182805461148a906134c5565b80156114d75780601f106114ac576101008083540402835291602001916114d7565b820191906000526020600020905b8154815290600101906020018083116114ba57829003601f168201915b5050506009909301549192505060ff808216916101009004168b565b6005546006546040517fab750e750000000000000000000000000000000000000000000000000000000081526001600160a01b039092169163ab750e759161154391879187918790600401613650565b60006040518083038186803b15801561155b57600080fd5b505afa15801561156f573d6000803e3d6000fd5b50505050505050565b611580611b16565b600580546001600160a01b0319166001600160a01b03841617905560068190555050565b5050565b60006002856040516020016115bd91906133a8565b60408051601f19818403018152908290526115d7916133a8565b602060405180830381855afa1580156115f4573d6000803e3d6000fd5b5050506040513d601f19601f820116820180604052508101906116179190613379565b6000818152600760205260409020549091506001600160a01b031633146116805760405162461bcd60e51b815260206004820152601560248201527f476974487562206c6f67696e206d69736d6174636800000000000000000000006044820152606401610685565b6000818152600d6020908152604080832089845282528083206001600160a01b0388168452909152902054806116f85760405162461bcd60e51b815260206004820152601360248201527f4e6f2066756e6420746f207769746864726177000000000000000000000000006044820152606401610685565b838110156117485760405162461bcd60e51b815260206004820152600f60248201527f616d6f756e742069732077726f6e6700000000000000000000000000000000006044820152606401610685565b6000828152600d602090815260408083208a845282528083206001600160a01b038916845290915281208054869290611782908490613690565b90915550506040516323b872dd60e01b81523060048201526001600160a01b038481166024830152604482018690528691908216906323b872dd906064016020604051808303816000875af11580156117df573d6000803e3d6000fd5b505050506040513d601f19601f8201168201806040525081019061180391906136a3565b50877fef11a46483bece8fc88ded7eb48c332bd4d44008c5592e65ceee094f1f2308458888888860405161183a94939291906136c5565b60405180910390a25050505050505050565b611854611b16565b61185d81611ee2565b50565b7f1c877521e2baa8608781781433251146e2441d904bb80e4721fc19ecf19f7a9583838360405161189393929190613701565b60405180910390a16118a6838383611f8c565b505050565b600081516041146118fe5760405162461bcd60e51b815260206004820152601860248201527f496e76616c6964207369676e6174757265206c656e67746800000000000000006044820152606401610685565b60208201516040830151606084015160001a7f7fffffffffffffffffffffffffffffff5d576e7357a4501ddfe92f46681b20a08211156119a65760405162461bcd60e51b815260206004820152603d60248201527f5369676e617475726556616c696461746f72237265636f7665725369676e657260448201527f3a20696e76616c6964207369676e6174757265202773272076616c75650000006064820152608401610685565b8060ff16601b141580156119be57508060ff16601c14155b15611a315760405162461bcd60e51b815260206004820152603d60248201527f5369676e617475726556616c696461746f72237265636f7665725369676e657260448201527f3a20696e76616c6964207369676e6174757265202776272076616c75650000006064820152608401610685565b60408051600081526020810180835288905260ff831691810191909152606081018490526080810183905260019060a0016020604051602081039080840390855afa158015611a84573d6000803e3d6000fd5b5050604051601f1901519450506001600160a01b038416611b0d5760405162461bcd60e51b815260206004820152603060248201527f5369676e617475726556616c696461746f72237265636f7665725369676e657260448201527f3a20494e56414c49445f5349474e4552000000000000000000000000000000006064820152608401610685565b50505092915050565b6001546001600160a01b03163314611b705760405162461bcd60e51b815260206004820152601660248201527f4f6e6c792063616c6c61626c65206279206f776e6572000000000000000000006044820152606401610685565b565b6001600160a01b038216611bcf573481146118a65760405162461bcd60e51b815260206004820152600f60248201527f616d6f756e742069732077726f6e6700000000000000000000000000000000006044820152606401610685565b6040517fdd62ed3e0000000000000000000000000000000000000000000000000000000081526001600160a01b0384811660048301523060248301528391839183169063dd62ed3e90604401602060405180830381865afa158015611c38573d6000803e3d6000fd5b505050506040513d601f19601f82011682018060405250810190611c5c9190613379565b1015611caa5760405162461bcd60e51b815260206004820152601760248201527f616c6c6f77616e6365206973206e6f7420656e6f7567680000000000000000006044820152606401610685565b6040516323b872dd60e01b81526001600160a01b038581166004830152306024830152604482018490528216906323b872dd906064016020604051808303816000875af1158015611cff573d6000803e3d6000fd5b505050506040513d601f19601f82011682018060405250810190611d2391906136a3565b5050505050565b60408051600280825260608201909252600091829190816020015b6060815260200190600190039081611d455790505090508381600081518110611d7057611d70613392565b60200260200101819052508281600181518110611d8f57611d8f613392565b6020026020010181905250611ddb6040805160e0810190915280600081526020016000815260200160008152602001606081526020016060815260200160608152602001606081525090565b611e01604051806103c0016040528061038e815260200161391361038e9139829061201c565b611e0b8183612029565b600454611e4090829068010000000000000000810460ff16906901000000000000000000900467ffffffffffffffff1661206c565b6000611e78611e4e8361212f565b60045460025460035467ffffffffffffffff90921691600160a01b90910463ffffffff169061249e565b6004546002546040519293507f75c428cb99d31b7ca6990d2e0fa2bd1bfe2ca7921f8cfd017ddc5107ca4eaad792611ed192859267ffffffffffffffff90911691600160a01b90910463ffffffff16908b908b90613736565b60405180910390a195945050505050565b336001600160a01b03821603611f3a5760405162461bcd60e51b815260206004820152601760248201527f43616e6e6f74207472616e7366657220746f2073656c660000000000000000006044820152606401610685565b600280546001600160a01b0319166001600160a01b03838116918217909255600154604051919216907fed8889f560326eb138920d842192f0eb3dd22b4f139c87a2c57538e05bae127890600090a350565b6000838152600c602052604081205490819003611feb5760405162461bcd60e51b815260206004820152600e60248201527f46756e64206e6f7420666f756e640000000000000000000000000000000000006044820152606401610685565b6000818152600b60205260409020600881016120078582613549565b50600901805460ff1916600117905550505050565b6115a48260008084612570565b8051600003612064576040517ffe936cb700000000000000000000000000000000000000000000000000000000815260040160405180910390fd5b60a090910152565b6000612079610100612607565b90506120c36040518060400160405280600681526020017f736c6f74494400000000000000000000000000000000000000000000000000008152508261262890919063ffffffff16565b6120d08160ff8516612641565b60408051808201909152600781527f76657273696f6e00000000000000000000000000000000000000000000000000602082015261210f908290612628565b6121198183612641565b6002602085015251516080909301929092525050565b6060600061213e610100612607565b90506121886040518060400160405280600c81526020017f636f64654c6f636174696f6e00000000000000000000000000000000000000008152508261262890919063ffffffff16565b82516121a690600281111561219f5761219f613789565b829061264d565b60408051808201909152600881527f6c616e677561676500000000000000000000000000000000000000000000000060208201526121e5908290612628565b60408301516121fc90801561219f5761219f613789565b60408051808201909152600681527f736f757263650000000000000000000000000000000000000000000000000000602082015261223b908290612628565b606083015161224b908290612628565b60a083015151156122f05760408051808201909152600481527f61726773000000000000000000000000000000000000000000000000000000006020820152612295908290612628565b61229e81612686565b60005b8360a00151518110156122e6576122de8460a0015182815181106122c7576122c7613392565b60200260200101518361262890919063ffffffff16565b6001016122a1565b506122f0816126aa565b608083015151156123f15760008360200151600281111561231357612313613789565b0361234a576040517fa80d31f700000000000000000000000000000000000000000000000000000000815260040160405180910390fd5b60408051808201909152600f81527f736563726574734c6f636174696f6e00000000000000000000000000000000006020820152612389908290612628565b6123a28360200151600281111561219f5761219f613789565b60408051808201909152600781527f736563726574730000000000000000000000000000000000000000000000000060208201526123e1908290612628565b60808301516123f19082906126c8565b60c083015151156124965760408051808201909152600981527f6279746573417267730000000000000000000000000000000000000000000000602082015261243b908290612628565b61244481612686565b60005b8360c001515181101561248c576124848460c00151828151811061246d5761246d613392565b6020026020010151836126c890919063ffffffff16565b600101612447565b50612496816126aa565b515192915050565b6000807f00000000000000000000000000000000000000000000000000000000000000006001600160a01b031663461d27628688600188886040518663ffffffff1660e01b81526004016124f695949392919061379f565b6020604051808303816000875af1158015612515573d6000803e3d6000fd5b505050506040513d601f19601f820116820180604052508101906125399190613379565b60405190915081907f1131472297a800fee664d1d89cfa8f7676ff07189ecc53f80bbb5f4969099db890600090a295945050505050565b80516000036125ab576040517f22ce3edd00000000000000000000000000000000000000000000000000000000815260040160405180910390fd5b838360028111156125be576125be613789565b908160028111156125d1576125d1613789565b905250604084018280156125e7576125e7613789565b908180156125f7576125f7613789565b9052506060909301929092525050565b61260f612a82565b805161261b90836126d5565b5060006020820152919050565b612635826003835161274c565b81516118a6908261286d565b6115a48260008361274c565b815161265a9060c2612895565b506115a4828260405160200161267291815260200190565b6040516020818303038152906040526126c8565b6126918160046128fe565b6001816020018181516126a491906133da565b90525050565b6126b58160076128fe565b6001816020018181516126a49190613690565b612635826002835161274c565b6040805180820190915260608152600060208201526126f56020836137e9565b1561271d576127056020836137e9565b612710906020613690565b61271a90836133da565b91505b60208084018390526040518085526000815290818401018181101561274157600080fd5b604052509192915050565b60178167ffffffffffffffff1611612773578251610c779060e0600585901b168317612895565b60ff8167ffffffffffffffff16116127b557825161279c906018611fe0600586901b1617612895565b508251610c779067ffffffffffffffff83166001612915565b61ffff8167ffffffffffffffff16116127f85782516127df906019611fe0600586901b1617612895565b508251610c779067ffffffffffffffff83166002612915565b63ffffffff8167ffffffffffffffff161161283d57825161282490601a611fe0600586901b1617612895565b508251610c779067ffffffffffffffff83166004612915565b825161285490601b611fe0600586901b1617612895565b508251610c779067ffffffffffffffff83166008612915565b60408051808201909152606081526000602082015261288e8383845161299a565b9392505050565b60408051808201909152606081526000602082015282515160006128ba8260016133da565b9050846020015182106128db576128db856128d683600261380b565b612a6b565b84516020838201018581535080518211156128f4578181525b5093949350505050565b81516118a690601f611fe0600585901b1617612895565b604080518082019091526060815260006020820152835151600061293982856133da565b9050856020015181111561295657612956866128d683600261380b565b6000600161296686610100613906565b6129709190613690565b9050865182810187831982511617815250805183111561298e578281525b50959695505050505050565b60408051808201909152606081526000602082015282518211156129bd57600080fd5b83515160006129cc84836133da565b905085602001518111156129e9576129e9866128d683600261380b565b855180518382016020019160009180851115612a03578482525b505050602086015b60208610612a435780518252612a226020836133da565b9150612a2f6020826133da565b9050612a3c602087613690565b9550612a0b565b51815160001960208890036101000a0190811690199190911617905250849150509392505050565b8151612a7783836126d5565b50610c77838261286d565b6040518060400160405280612aaa604051806040016040528060608152602001600081525090565b8152602001600081525090565b634e487b7160e01b600052604160045260246000fd5b604051601f8201601f1916810167ffffffffffffffff81118282101715612af657612af6612ab7565b604052919050565b600082601f830112612b0f57600080fd5b813567ffffffffffffffff811115612b2957612b29612ab7565b612b3c601f8201601f1916602001612acd565b818152846020838601011115612b5157600080fd5b816020850160208301376000918101602001919091529392505050565b600080600060608486031215612b8357600080fd5b83359250602084013567ffffffffffffffff80821115612ba257600080fd5b612bae87838801612afe565b93506040860135915080821115612bc457600080fd5b50612bd186828701612afe565b9150509250925092565b60008083601f840112612bed57600080fd5b50813567ffffffffffffffff811115612c0557600080fd5b602083019150836020828501011115612c1d57600080fd5b9250929050565b600080600080600060608688031215612c3c57600080fd5b853567ffffffffffffffff80821115612c5457600080fd5b612c6089838a01612bdb565b9097509550602088013594506040880135915080821115612c8057600080fd5b50612c8d88828901612bdb565b969995985093965092949392505050565b600060208284031215612cb057600080fd5b5035919050565b80356001600160a01b0381168114612cce57600080fd5b919050565b600080600080600060808688031215612ceb57600080fd5b8535945060208601359350612d0260408701612cb7565b9250606086013567ffffffffffffffff811115612d1e57600080fd5b612c8d88828901612bdb565b600060208284031215612d3c57600080fd5b813567ffffffffffffffff811115612d5357600080fd5b612d5f84828501612afe565b949350505050565b600080600080600080600060c0888a031215612d8257600080fd5b87359650602088013595506040880135945060608801359350612da760808901612cb7565b925060a088013567ffffffffffffffff811115612dc357600080fd5b612dcf8a828b01612bdb565b989b979a50959850939692959293505050565b803567ffffffffffffffff81168114612cce57600080fd5b60008060008060808587031215612e1057600080fd5b84359350612e2060208601612de2565b9250604085013560ff81168114612e3657600080fd5b9150612e4460608601612de2565b905092959194509250565b60008060408385031215612e6257600080fd5b823567ffffffffffffffff80821115612e7a57600080fd5b612e8686838701612afe565b93506020850135915080821115612e9c57600080fd5b50612ea985828601612afe565b9150509250929050565b600060e08284031215612ec557600080fd5b50919050565b60008060408385031215612ede57600080fd5b823567ffffffffffffffff80821115612ef657600080fd5b612f0286838701612afe565b93506020850135915080821115612f1857600080fd5b50612ea985828601612eb3565b60008060008060808587031215612f3b57600080fd5b843567ffffffffffffffff80821115612f5357600080fd5b612f5f88838901612afe565b95506020870135915080821115612f7557600080fd5b50612f8287828801612afe565b935050612f9160408601612cb7565b9396929550929360600135925050565b60005b83811015612fbc578181015183820152602001612fa4565b50506000910152565b60008151808452612fdd816020860160208601612fa1565b601f01601f19169290920160200192915050565b60208152600061288e6020830184612fc5565b60006020828403121561301657600080fd5b813567ffffffffffffffff81111561302d57600080fd5b612d5f84828501612eb3565b60006101608d83528c60208401526001600160a01b03808d166040850152808c166060850152508960808401528060a08401526130788184018a612fc5565b905082810360c084015261308c8189612fc5565b90508660e08401528281036101008401526130a78187612fc5565b9415156101208401525050901515610140909101529998505050505050505050565b6000806000604084860312156130de57600080fd5b833567ffffffffffffffff8111156130f557600080fd5b61310186828701612bdb565b909790965060209590950135949350505050565b6000806040838503121561312857600080fd5b61313183612cb7565b946020939093013593505050565b60008060006060848603121561315457600080fd5b833592506020840135915061316b60408501612cb7565b90509250925092565b600080600080600060a0868803121561318c57600080fd5b85359450602086013567ffffffffffffffff8111156131aa57600080fd5b6131b688828901612afe565b9450506131c560408701612cb7565b9250606086013591506131da60808701612cb7565b90509295509295909350565b6000602082840312156131f857600080fd5b61288e82612cb7565b600067ffffffffffffffff82111561321b5761321b612ab7565b5060051b60200190565b600082601f83011261323657600080fd5b8135602061324b61324683613201565b612acd565b8083825260208201915060208460051b87010193508684111561326d57600080fd5b602086015b848110156132895780358352918301918301613272565b509695505050505050565b6000806000606084860312156132a957600080fd5b8335925060208085013567ffffffffffffffff808211156132c957600080fd5b818701915087601f8301126132dd57600080fd5b81356132eb61324682613201565b81815260059190911b8301840190848101908a83111561330a57600080fd5b8585015b83811015613342578035858111156133265760008081fd5b6133348d89838a0101612afe565b84525091860191860161330e565b5096505050604087013592508083111561335b57600080fd5b5050612bd186828701613225565b8183823760009101908152919050565b60006020828403121561338b57600080fd5b5051919050565b634e487b7160e01b600052603260045260246000fd5b600082516133ba818460208701612fa1565b9190910192915050565b634e487b7160e01b600052601160045260246000fd5b80820180821115611237576112376133c4565b6000606082016001600160a01b0386168352602060608185015281865180845260808601915060808160051b870101935082880160005b8281101561345257607f19888703018452613440868351612fc5565b95509284019290840190600101613424565b50505050838203604085015284518083528186019282019060005b818110156134895784518352938301939183019160010161346d565b509098975050505050505050565b6040815260006134aa6040830185612fc5565b82810360208401526134bc8185612fc5565b95945050505050565b600181811c908216806134d957607f821691505b602082108103612ec557634e487b7160e01b600052602260045260246000fd5b601f8211156118a6576000816000526020600020601f850160051c810160208610156135225750805b601f850160051c820191505b818110156135415782815560010161352e565b505050505050565b815167ffffffffffffffff81111561356357613563612ab7565b6135778161357184546134c5565b846134f9565b602080601f8311600181146135ac57600084156135945750858301515b600019600386901b1c1916600185901b178555613541565b600085815260208120601f198616915b828110156135db578886015182559484019460019091019084016135bc565b50858210156135f95787850151600019600388901b60f8161c191681555b5050505050600190811b01905550565b6000808335601e1984360301811261362057600080fd5b83018035915067ffffffffffffffff82111561363b57600080fd5b602001915036819003821315612c1d57600080fd5b606081528360608201528385608083013760006080858301015260006080601f19601f870116830101905083602083015282604083015295945050505050565b81810381811115611237576112376133c4565b6000602082840312156136b557600080fd5b8151801515811461288e57600080fd5b6080815260006136d86080830187612fc5565b6001600160a01b0395861660208401526040830194909452509216606090920191909152919050565b83815260606020820152600061371a6060830185612fc5565b828103604084015261372c8185612fc5565b9695505050505050565b85815267ffffffffffffffff8516602082015263ffffffff8416604082015260a06060820152600061376b60a0830185612fc5565b828103608084015261377d8185612fc5565b98975050505050505050565b634e487b7160e01b600052602160045260246000fd5b67ffffffffffffffff8616815260a0602082015260006137c260a0830187612fc5565b61ffff9590951660408301525063ffffffff92909216606083015260809091015292915050565b60008261380657634e487b7160e01b600052601260045260246000fd5b500690565b8082028115828204841417611237576112376133c4565b600181815b8085111561385d578160001904821115613843576138436133c4565b8085161561385057918102915b93841c9390800290613827565b509250929050565b60008261387457506001611237565b8161388157506000611237565b816001811461389757600281146138a1576138bd565b6001915050611237565b60ff8411156138b2576138b26133c4565b50506001821b611237565b5060208310610133831016604e8410600b84101617156138e0575081810a611237565b6138ea8383613822565b80600019048211156138fe576138fe6133c4565b029392505050565b600061288e838361386556fe636f6e7374206f7267616e697a6174696f6e203d20617267735b305d3b636f6e7374207265706f7369746f7279203d20617267735b315d3b636f6e7374206a7774203d20736563726574732e6a77743b636f6e73742072657331203d2061776169742046756e6374696f6e732e6d616b654874747052657175657374287b202075726c3a206068747470733a2f2f6170692e6769746875622e636f6d2f7265706f732f247b6f7267616e697a6174696f6e7d2f247b7265706f7369746f72797d2f636f6e7472696275746f7273607d293b69662028726573312e6572726f7229207b20207468726f77204572726f7228275265717565737431206661696c65643a2027202b204a534f4e2e737472696e67696679287265733129293b7d3b636f6e7374207b2064617461207d203d20726573313b636f6e737420636f6e7472696275746f7273203d20646174612e6d617028287829203d3e20287b6c6f67696e3a20782e6c6f67696e2c20636f6e747269627574696f6e733a20782e636f6e747269627574696f6e737d29293b636f6e73742072657332203d2061776169742046756e6374696f6e732e6d616b654874747052657175657374287b202075726c3a202768747470733a2f2f6170692e70696e6174612e636c6f75642f70696e6e696e672f70696e4a534f4e546f49504653272c20206d6574686f643a2027504f5354272c2020686561646572733a207b2020202027436f6e74656e742d54797065273a20276170706c69636174696f6e2f6a736f6e272c2020202027417574686f72697a6174696f6e273a206042656172657220247b6a77747d6020207d2c2020646174613a207b2020202070696e6174614d657461646174613a207b2020202020206e616d653a2060247b6f7267616e697a6174696f6e7d5f247b7265706f7369746f72797d5f247b6e6577204461746528292e67657454696d6528297d2e6a736f6e60202020207d2c2020202070696e617461436f6e74656e743a20636f6e7472696275746f727320207d7d293b69662028726573322e6572726f7229207b20207468726f77204572726f7228275265717565737432206661696c65643a2027202b204a534f4e2e737472696e67696679287265733229202b204a534f4e2e737472696e6769667928636f6e7472696275746f727329293b7d3b72657475726e2046756e6374696f6e732e656e636f6465537472696e6728726573322e646174612e4970667348617368293ba26469706673582212202134a7820fdf2158620b94725f4d0cff04b9fcbfff48c96b4f89fbfdef047d7e64736f6c63430008180033",
  "linkReferences": {},
  "deployedLinkReferences": {}
}